:100000000C9464000C945D0F0C948A0F0C948C007B
:100010000C948C000C948C000C948C000C94700349
:100020000C948C000C948C000C948C000C947C0E22
:100030000C948C000C948C000C948C000C948C0010
:100040000C94B70F0C948C000C9442120C949412E4
:100050000C948C000C948C000C948C000C948C00F0
:100060000C948C000C948C000000000024002700ED
:100070002A0000000000250028002B0000000000DE
:1000800023002600290004040404040404040202DA
:100090000202020203030303030301020408102007
:1000A0004080010204081020010204081020000012
:1000B0000007000201000003040600000000000029
:1000C00000005D040314560411241FBECFEFD8E0D6
:1000D000DEBFCDBF11E0A0E0B1E0E2EAF2E302C092
:1000E00005900D92A43CB107D9F713E0A4ECB1E060
:1000F00001C01D92AC34B107E1F710E0C6ECD0E0CE
:1001000004C02297FE010E940919C23CD107C9F719
:100110000E945A140C9444190C940000FB01DC0159
:1001200002C001900D9241505040D8F70895FB0154
:10013000DC0101900D920020E1F70895FB019F0181
:10014000E8944230C4F04532B4F44A3029F497FBC5
:100150001EF4909581959F4F642F77270E94F31886
:10016000805D8A330CF0895D8193CB010097A1F704
:1001700016F45DE251931082C9010C94D602AEE0F0
:10018000B0E0E5ECF0E00C941B190D891E8986E0C7
:100190008C831A8309838FEF9FE79E838D839E0153
:1001A000275E3F4FCE0101966F89788DA9010E948D
:1001B000E3002F813885020F131FF80110822E965D
:1001C000E4E00C943719ABE0B0E0E9EEF0E00C9419
:1001D0000D193C012B015A01FC0117821682838103
:1001E00081FD03C06FEF7FEFC6C19AE0892E1E012B
:1001F0000894211C311CF3012381F20123FD859118
:1002000023FF81912F01882309F4B2C1853239F48B
:1002100023FD859123FF81912F01853229F490E000
:10022000B3010E94E602E7CF982FFF24EE24992421
:10023000FFE1FF15D0F09B3269F09C3228F4903238
:1002400059F0933291F40EC09D3249F0903369F425
:1002500041E024C052E0F52A84E0F82A28C098E062
:10026000F92A25C0E0E1FE2A22C0F7FC29C0892F27
:1002700080538A3070F4F6FE05C0989C902C1124AF
:10028000980E15C0E89CE02C1124E80EF0E2FF2A3D
:100290000EC09E3229F4F6FC6BC140E4F42A07C07C
:1002A0009C3619F450E8F52A02C0983649F4F20158
:1002B00023FD959123FF91912F01992309F0B8CF48
:1002C000892F8554833018F08052833038F444E00D
:1002D00050E0A40EB51E5FE359830FC0933631F092
:1002E000933779F0933509F056C020C0F50180812D
:1002F000898342E050E0A40EB51E610101E010E0E8
:1003000012C0F501C080D180F6FC03C06FEF7FEF13
:1003100002C0692D70E042E050E0A40EB51EC60197
:100320000E94CB028C015FE7F52214C0F501C0806A
:10033000D180F6FC03C06FEF7FEF02C0692D70E043
:1003400042E050E0A40EB51EC6010E94C0028C011E
:1003500050E8F52AF3FE07C01AC080E290E0B3012E
:100360000E94E602EA948E2D90E008171907A8F380
:100370000EC0F601F7FC8591F7FE81916F0190E0C8
:10038000B3010E94E602E110EA9401501040011509
:10039000110579F7EAC0943611F0993669F5F7FE40
:1003A00008C0F501208131814281538184E090E0D1
:1003B0000AC0F501808191819C01442737FD409559
:1003C000542F82E090E0A80EB91E9FE6F92257FF55
:1003D00009C050954095309521953F4F4F4F5F4F45
:1003E000E0E8FE2ACA01B901A1012AE030E00E943A
:1003F0001203D82ED21840C0953729F41F2D1F7E26
:100400002AE030E01DC01F2D197F9F3661F0903724
:1004100020F4983509F0ACC00FC0903739F0983708
:1004200009F0A6C004C028E030E00AC0106114FD45
:10043000146020E130E004C014FD166020E132E0D9
:1004400017FF08C0F501608171818281938144E0CA
:1004500050E008C0F50180819181BC0180E090E00E
:1004600042E050E0A40EB51EA1010E941203D82E56
:10047000D2188FE7F82EF122F6FE0BC05EEFF522C0
:10048000D91438F4F4FE07C0F2FC05C08FEEF82250
:1004900002C01D2D01C0192DF4FE0DC0FE01ED0D91
:1004A000F11D8081803319F499EEF92208C01F5F95
:1004B000F2FE05C003C08F2D867809F01F5F0F2D57
:1004C000F3FC14C0F0FE0FC01E1510F09D2C0BC0E5
:1004D0009D2C9E0C911A1E2D06C080E290E0B30167
:1004E0000E94E6021F5F1E15C0F304C01E1510F423
:1004F000E11A01C0EE2404FF0FC080E390E0B301D5
:100500000E94E60202FF1DC001FD03C088E790E0E3
:100510000EC088E590E00BC0802F867891F001FF37
:1005200002C08BE201C080E2F7FC8DE290E0B301F3
:100530000E94E60206C080E390E0B3010E94E6025A
:100540009A94D914C0F3DA94F101ED0DF11D808174
:1005500090E0B3010E94E602DD20A9F706C080E228
:1005600090E0B3010E94E602EA94EE20C1F743CE88
:10057000F30166817781CB012B96E2E10C94291976
:10058000FC010590615070400110D8F7809590955E
:100590008E0F9F1F0895FC01615070400190011063
:1005A000D8F7809590958E0F9F1F0895DC01FC0170
:1005B000672F71917723E1F7329704C07C916D9397
:1005C00070836291AE17BF07C8F308950F931F930E
:1005D000CF93DF938C01EB018B8181FF1BC082FFE6
:1005E0000DC02E813F818C819D812817390764F4CD
:1005F000E881F9810193F983E88306C0E885F985EC
:10060000802F0995892B31F48E819F8101969F83DC
:100610008E8302C00FEF1FEFC801DF91CF911F91B2
:100620000F910895FA01AA27283051F1203181F164
:10063000E8946F936E7F6E5F7F4F8F4F9F4FAF4FEA
:10064000B1E03ED0B4E03CD0670F781F891F9A1FFD
:10065000A11D680F791F8A1F911DA11D6A0F711DB1
:10066000811D911DA11D20D009F468943F912AE0BD
:10067000269F11243019305D3193DEF6CF010895A5
:10068000462F4770405D4193B3E00FD0C9F7F6CFD6
:10069000462F4F70405D4A3318F0495D31FD40529E
:1006A000419302D0A9F7EACFB4E0A6959795879534
:1006B00077956795BA95C9F7009761057105089513
:1006C0009B01AC010A2E06945795479537952795BF
:1006D000BA95C9F7620F731F841F951FA01D089557
:1006E0001F920F920FB60F9211248F939F9385B193
:1006F00090E1892785B99F918F910F900FBE0F9040
:100700001F9018958091F8019091F901A091FA013C
:10071000B091FB010196A11DB11D8093F80190934A
:10072000F901A093FA01B093FB0180919601909199
:100730009701A0919801B09199012091F001309119
:10074000F1014091F2015091F301820F931FA41F18
:10075000B51F8093F0019093F101A093F201B09343
:10076000F30108958091FC019091FD01A091FE019B
:10077000B091FF010196A11DB11D8093FC019093E2
:10078000FD01A093FE01B093FF0180919A01909129
:100790009B01A0919C01B0919D012091F4013091A9
:1007A000F5014091F6015091F701820F931FA41FAC
:1007B000B51F8093F4019093F501A093F601B093D7
:1007C000F70108958130910509F066C06F5F7F4F92
:1007D00009F06BC084EC91E00E94380D87EC91E049
:1007E0000E94380D8AEC91E00E94380DADECB1E02A
:1007F000E4ECF1E083E001900D928150E1F7A0ED8F
:10080000B1E0E7ECF1E083E001900D928150E1F777
:10081000A3EDB1E0EAECF1E083E001900D928150AC
:10082000E1F786ED91E00E94380D89ED91E00E949C
:10083000380D8CED91E00E94380D8FED91E00E9413
:10084000380DA2EEB1E0ECEDF1E083E001900D9205
:100850008150E1F7A5EEB1E0EFEDF1E083E001902A
:100860000D928150E1F7A8EEB1E0E6EDF1E083E012
:1008700001900D928150E1F7ABEEB1E0E9EDF1E0CE
:1008800083E001900D928150E1F784E692E060E010
:1008900071E00E942A160895892B39F46F5F7F4F0B
:1008A00021F484E692E00E945C16089580E090E0D6
:1008B0006FEF7FEF0E94E203089581E090E06FEF19
:1008C0007FEF0E94E203089560918C0170918D0189
:1008D00086E293E00E94F7140895EF92FF920F933F
:1008E0001F93CF93DF938091AA01882321F48091F5
:1008F000AB01882329F086E293E061E071E065C0F6
:100900008CE061E00E94BF108DE061E00E94BF10AA
:100910008CE061E00E94FE108DE061E00E94FE101C
:10092000C0E0D0E085B18F7C806185B965E070E082
:1009300080E090E00E94FF0F85B18F7C806285B9D6
:1009400065E070E080E090E00E94FF0F219681E07A
:10095000CC32D80739F784E00E949D107C0185E0F5
:100960000E949D108C018CE060E00E94FE108DE0E2
:1009700060E00E94FE1000D000D000D0EDB7FEB7BE
:10098000319680E092E0ADB7BEB712969C938E93FD
:10099000119785E091E093838283C701801B910BBF
:1009A00097FF03C0909581959F4F958384830E9404
:1009B000BF008DB79EB706960FB6F8949EBF0FBEC8
:1009C0008DBF86E293E060E072E00E94F714DF9151
:1009D000CF911F910F91FF90EF9008956F927F92AA
:1009E0008F929F92AF92BF92CF92DF92EF92FF923F
:1009F0000F931F93CF93DF93FC018A01790120911C
:100A0000EE013091EF01880F991FE801CC0FDD1F37
:100A10002115310579F48E0F9F1F8E519E4F0E9434
:100A20008E0DC00FD11FCE018E519E4FB7010E9477
:100A30008E0D51C03C016E0E7F1E82EE91E0680E5D
:100A4000791E4E01800E911E880E991ECB018C5D81
:100A50009540B9010E94A3188B01C7018C5D954098
:100A6000B9010E94A318EB01AA24BB24CC24DD24E5
:100A7000EE24FF2425C0B601601B710B809192010A
:100A800090919301680F791FC3010E948E0DB701E9
:100A90006C1B7D0B8091920190919301680F791FDF
:100AA000C4010E948E0D6091940170919501882778
:100AB00077FD8095982F0E94FF0F0894A11CB11C10
:100AC000C00ED11EEC0EFD1E8091EE019091EF0143
:100AD000A816B90684F2DF91CF911F910F91FF9074
:100AE000EF90DF90CF90BF90AF909F908F907F90CE
:100AF0006F900895CF92DF92EF92FF920F931F9322
:100B0000CF93DF939C01AB016091EE017091EF01F7
:100B1000880F991F6115710541F4820F931F8E5143
:100B20009E4FBA010E948E0D34C06C01C20ED31EBE
:100B300082EE91E0C80ED91ECA018C5D95400E94DC
:100B4000A318EB01EE24FF2400E010E019C0B80167
:100B50006C1B7D0B8091920190919301680F791F1E
:100B6000C6010E948E0D60919401709195018827B5
:100B700077FD8095982F0E94FF0F0894E11CF11CCF
:100B80000C0F1D1F8091EE019091EF01E816F90600
:100B9000F4F2DF91CF911F910F91FF90EF90DF90D2
:100BA000CF9008951F9386E293E00E945613892BFD
:100BB000D1F386E293E00E948A13182F8A3029F439
:100BC00086E293E00E948A1302C0803261F3812F93
:100BD0001F9108951F93CF93DF930E94D205813612
:100BE00039F18436E9F584E692E06AE071E00E942A
:100BF0004316C0E0D0E0FE01E256FE4F808188231C
:100C000091F48C2F60E00E94BF1084E692E06CE0CB
:100C100071E00E94E7158C2F0E945211BC0184E6FE
:100C200092E00E94B6152196CE30D10521F718C06A
:100C300084E692E06EE071E00E94431610E084E6E4
:100C400092E06CE071E00E94E715812F0E949D10F8
:100C5000BC0184E692E00E94B6151F5F183079F758
:100C600086E293E064E672E00E94C714DF91CF91C0
:100C70001F910895FF920F931F93CF93DF93C0E0CE
:100C8000D0E0FF2401E010E002C00FEF1FEF86E28A
:100C900093E00E945613892BD1F386E293E00E94E1
:100CA0008A13282F8D3289F380538A3080F4CE0145
:100CB000A3E0880F991FAA95E1F7CC0FDD1FC80F9D
:100CC000D91FE097C20FD11DFF24F394E0CF2A3043
:100CD00029F486E293E00E948A1304C0203211F4C2
:100CE000FF20A9F20C9F90010D9F300D1C9F300D2D
:100CF0001124C901DF91CF911F910F91FF900895A9
:100D0000EF92FF920F93CF93DF930E94D205082FAB
:100D10000E943A067C010E943A06EC01FC01E25670
:100D2000FE4F80818823E1F40D3619F0033799F4E2
:100D300008C0C701880F991F8E0D9F1D8E519E4FB1
:100D400007C0C701880F991F8E0D9F1D83539E4FAB
:100D5000BE010E94750EFE01E256FE4F81E08083C7
:100D60008DB79EB70A970FB6F8949EBF0FBE8DBF82
:100D7000EDB7FEB7319680E092E0ADB7BEB7129600
:100D80009C938E93119780E191E093838283802FCF
:100D9000992787FD909595838483F782E682D18792
:100DA000C0870E94BF00ADB7BEB71A960FB6F894C1
:100DB000BEBF0FBEADBF86E293E060E072E00E946E
:100DC000F714DF91CF910F91FF90EF900895CF929C
:100DD000DF92EF92FF920F931F930E943A06F82E34
:100DE000E92E61E00E94BF108F2D60E00E94FE108E
:100DF00082E090E00E9458108F2D61E00E94FE106A
:100E000085E090E00E9458108F2D60E00E94FE1057
:100E10008F2D60E00E94BF108F2D61E020E432E44E
:100E20004FE050E00E94A5112DB73EB7285030404A
:100E30000FB6F8943EBF0FBE2DBF0DB71EB70F5FA4
:100E40001F4F30E0C32E32E0D32EEDB7FEB7D28273
:100E5000C1822BE131E0F80133832283F482E58201
:100E60002AE330E040E050E00E94D818F8013783D0
:100E700026830E94BF002DB73EB7285F3F4F0FB6B5
:100E8000F8943EBF0FBE2DBF86E293E0B6010E94EC
:100E9000F7141F910F91FF90EF90DF90CF9008957E
:100EA000AF92BF92CF92DF92EF92FF920F931F9378
:100EB0000E943A067C010E943A066C010E943A06A2
:100EC0005C018DB79EB70A970FB6F8949EBF0FBE10
:100ED0008DBFEDB7FEB7319600E012E0ADB7BEB7FB
:100EE00012961C930E93119783E291E09383828371
:100EF000F582E482D782C682B186A0860E94BF00B6
:100F00008DB79EB70A960FB6F8949EBF0FBE8DBFE1
:100F100086E293E0B8010E94F7140DEC11E0C801DD
:100F2000B7010E948E0DC8010396B6010E948E0D76
:100F3000C8010696B5010E948E0D1F910F91FF907A
:100F4000EF90DF90CF90BF90AF900895EF92FF9217
:100F50000F931F93CF93DF930E943A06EC010E94F8
:100F60003A067C018DB79EB708970FB6F8949EBFDE
:100F70000FBE8DBFEDB7FEB7319600E012E0ADB702
:100F8000BEB712961C930E9311978EE291E0938355
:100F90008283D583C483F782E6820E94BF008DB727
:100FA0009EB708960FB6F8949EBF0FBE8DBF86E21F
:100FB00093E0B8010E94F714D7FD11C080918E0113
:100FC00090918F01C817D90754F4CE01880F991F4B
:100FD0008C0F9D1F83539E4FB7010E948E0DDF9192
:100FE000CF911F910F91FF90EF900895EF92FF9294
:100FF0000F931F930E943A068C0100D000D000D0BE
:10100000EDB7FEB7319660E0E62E62E0F62EADB7A2
:10101000BEB71296FC92EE92119786E391E093830D
:101020008283158304830E94BF00EDB7FEB7369616
:101030000FB6F894FEBF0FBEEDBF86E293E0B70196
:101040000E94F714000F111F000F111F00511E4FB7
:10105000D8011D921D921D921C9213971F910F9102
:10106000FF90EF9008950F931F93CF93DF930E940B
:101070003A06FC018DB79EB708970FB6F8949EBF4D
:101080000FBE8DBFADB7BEB7119600E012E0CDB771
:10109000DEB71A8309838BE391E013969C938E93BA
:1010A00012971596FC93EE931497EE0FFF1FEE0F19
:1010B000FF1FE051FE4F8081918117969C938E9384
:1010C00016970E94BF008DB79EB708960FB6F8948A
:1010D0009EBF0FBE8DBF86E293E0B8010E94F71459
:1010E000DF91CF911F910F9108952F923F924F92D0
:1010F0005F926F927F928F929F92AF92BF92CF92A8
:10110000DF92EF92FF920F931F93DF93CF93CDB7B0
:10111000DEB72C970FB6F894DEBF0FBECDBF0E948E
:101120003A063C010E943A067C010E943A069A87E0
:1011300089870E943A062C010E943A068C010E947F
:101140003A061C0129853A85442737FD4095542FDE
:101150002D833E834F835887C101AA2797FDA09511
:10116000BA2F89839A83AB83BC839CE0E9169EEFF8
:10117000F9062CF488EE882E83E0982E10C0A5EF97
:10118000EA16A1E0FA062CF0B0ED8B2EB7E09B2E0C
:1011900006C0ACED8A2EA5E09A2E8E0C9F1CBEEFE9
:1011A0000C301B072CF4F8EEAF2EF3E0BF2E0FC06F
:1011B000E1E0053F1E072CF0E0EDAE2EE7E0BE2E8D
:1011C00006C07CEDA72E75E0B72EA00EB11E77FCF1
:1011D0000FC157FC0DC1F301EE0FFF1FEE0FFF1FF4
:1011E000E850FE4F1082118212821382F201EE0F3C
:1011F000FF1FEE0FFF1FE850FE4F10821182128278
:1012000013822091920130919301281539052CF415
:1012100081E090E0A0E0B0E004C08FEF9FEFAFEF7F
:10122000BFEFF301EE0FFF1FEE0FFF1FEA56FE4F59
:1012300080839183A283B3832A153B052CF481E03C
:1012400090E0A0E0B0E004C08FEF9FEFAFEFBFEF02
:101250008201000F111F000F111FF801EA56FE4F07
:1012600080839183A283B383C301B401A20195015A
:101270000E94EE047301EE0CFF1CE60CF71C22EE3C
:1012800031E0E20EF31E6201CC0CDD1CC40CD51C57
:10129000C20ED31EA301440F551F440F551F4850C3
:1012A0005E4F5C874B8708501E4F2FC082E090E056
:1012B0000E945810EB85FC8580819181A281B381C9
:1012C0002D813E814F815885281739074A075B07D2
:1012D0003CF46091920170919301C7010E948E0DC0
:1012E000F80180819181A281B38129813A814B816A
:1012F0005C81281739074A075B073CF4609192012B
:1013000070919301C6010E948E0DEB85FC85808152
:101310009181A281B3812D813E814F8158858217B1
:101320009307A407B50714F2F80180819181A28187
:10133000B38129813A814B815C8182179307A4078D
:10134000B5070CF4B3CFD8011D921D921D921C92CB
:101350001397EB85FC8510821182128213826091B3
:10136000920170919301C7010E948E0D60919201CC
:1013700070919301C6010E948E0D2DB73EB720518A
:1013800030400FB6F8943EBF0FBE2DBFEDB7FEB78D
:10139000319600E012E0ADB7BEB712961C930E93E3
:1013A000119784E491E0938382837582648224E2BE
:1013B0003AEF820E931E9782868249855A8551871D
:1013C000408753864286A20EB31EB586A486378612
:1013D00026860E94BF008DB79EB740960FB6F89440
:1013E0009EBF0FBE8DBF86E293E0B8010E94F71446
:1013F0002C960FB6F894DEBF0FBECDBFCF91DF9114
:101400001F910F91FF90EF90DF90CF90BF90AF9022
:101410009F908F907F906F905F904F903F902F9014
:1014200008958F929F92AF92BF92CF92DF92EF92E8
:10143000FF920F931F93CF93DF930E943A066C01A4
:101440000E943A06EC010E943A065C010E943A06AC
:101450007C010E943A064C014DB75EB74E50504099
:101460000FB6F8945EBF0FBE4DBFEDB7FEB7319615
:1014700000E012E0ADB7BEB712961C930E93119721
:1014800088E591E093838283D582C482D783C68323
:10149000B186A086F386E286958684860E94BF0088
:1014A0004DB75EB7425F5F4F0FB6F8945EBF0FBE99
:1014B0004DBF86E293E0B8010E94F7145EEFCC3096
:1014C000D5071CF468EE73E00AC081E0C53FD80779
:1014D0001CF060ED77E003C0BE0164527A4F9CE0DF
:1014E000E9169EEFF9061CF428EE33E00BC0A5EFD9
:1014F000EA16A1E0FA061CF020ED37E003C09701E0
:1015000024523A4FD7FC80C0B7FC7EC04091900176
:1015100050919101C416D506DCF48091920190910E
:101520009301861797072CF08FEF9FEFAFEFBFEF78
:1015300004C081E090E0A0E0B0E0F601EE0FFF1FF4
:10154000EE0FFF1FEA56FE4F80839183A283B38381
:10155000A416B506DCF48091920190919301821754
:1015600093072CF08FEF9FEFAFEFBFEF04C081E048
:1015700090E0A0E0B0E0F501EE0FFF1FEE0FFF1FBF
:10158000EA56FE4F80839183A283B383C601A501EF
:101590000E94EE0418141904BCF5809194019091F6
:1015A00095012091EE013091EF01AC01429FC00105
:1015B000439F900D529F900D11249401281B390BCD
:1015C000121613063CF4B901882777FD8095982FF1
:1015D0000E94FF0FC601880F991F8C0D9D1D609101
:1015E0009201709193018E519E4F0E948E0DC50104
:1015F000880F991F8A0D9B1D609192017091930134
:101600008E519E4F0E948E0DDF91CF911F910F91B1
:10161000FF90EF90DF90CF90BF90AF909F908F9012
:1016200008958F929F92AF92BF92CF92DF92EF92E6
:10163000FF920F931F93CF93DF930E943A067C0192
:101640000E943A06EC010E943A064C015C01CC244F
:10165000B7FCC094DC2C8EEFCC30D8071CF4C8EE5D
:10166000D3E009C091E0C53FD9071CF0C0EDD7E039
:1016700002C0C452DA4FF7FC7BC0F701EE0FFF1F28
:10168000EE0FFF1FE850FE4F10821182128213826C
:1016900080919201909193018C179D072CF481E029
:1016A00090E0A0E0B0E004C08FEF9FEFAFEFBFEF9E
:1016B0008701000F111F000F111FF801EA56FE4F9E
:1016C00080839183A283B383C701BE010E947A0500
:1016D00008501E4F04C082E090E00E945810F801AC
:1016E00080819181A281B3818A159B05AC05BD05DE
:1016F00094F3C701880F991F8E0D9F1D6091920171
:10170000709193018E519E4F0E948E0DD8011D92B3
:101710001D921D921C921397EDB7FEB73A970FB624
:10172000F894FEBF0FBEEDBF319600E012E0ADB7FA
:10173000BEB712961C930E93119789E691E093839E
:101740008283F582E482CC5DD540D783C6839186BF
:1017500080860E94BF00EDB7FEB73A960FB6F894A8
:10176000FEBF0FBEEDBF86E293E0B8010E94F71402
:10177000DF91CF911F910F91FF90EF90DF90CF906D
:10178000BF90AF909F908F900895CF92DF92EF928D
:10179000FF920F931F93CF93DF930E943A067C0131
:1017A0000E943A06EC010E943A066C014DB75EB702
:1017B0004A5050400FB6F8945EBF0FBE4DBFEDB714
:1017C000FEB7319600E012E0ADB7BEB712961C939B
:1017D0000E93119784E791E093838283F582E482EC
:1017E000D783C683D186C0860E94BF004DB75EB73F
:1017F000465F5F4F0FB6F8945EBF0FBE4DBF86E2E7
:1018000093E0B8010E94F7145EEFCC30D5071CF4CA
:1018100068EE73E00AC081E0C53FD8071CF060EDB8
:1018200077E003C0BE0164527A4FF7FC52C080914A
:10183000900190919101E816F906DCF480919201F3
:1018400090919301861797072CF08FEF9FEFAFEFE2
:10185000BFEF04C081E090E0A0E0B0E0F701EE0F40
:10186000FF1FEE0FFF1FEA56FE4F80839183A28376
:10187000B383C7010E947A051C141D0454F580919E
:101880009401909195012091EE013091EF01DC01DE
:10189000A29FC001A39F900DB29F900D11249601AD
:1018A000281B390B121613063CF4B901882777FD63
:1018B0008095982F0E94FF0FC701880F991F8E0DEA
:1018C0009F1D60919201709193018E519E4F0E94D5
:1018D0008E0DDF91CF911F910F91FF90EF90DF90D0
:1018E000CF9008950F931F930E943A069093EF01B3
:1018F0008093EE0100D000D000D0EDB7FEB7319656
:1019000000E012E0ADB7BEB712961C930E9311978C
:101910002FE731E033832283958384830E94BF00C5
:101920008DB79EB706960FB6F8949EBF0FBE8DBFBB
:1019300086E293E0B8010E94F714609194017091DF
:1019400095018091EE019091EF010E94A318709390
:10195000EF016093EE011F910F91089586E293E0ED
:101960000E945613892B09F454C00E94D20580931B
:101970006A02853689F186368CF48635C9F1873559
:1019800034F48434C1F1853409F043C037C0833660
:10199000D9F18436F4F48136E1F539C0813789F123
:1019A00082373CF48E3661F08037C9F08D3689F588
:1019B0001CC0863759F08A37A9F0823751F503C029
:1019C0000E94640408950E94EA0508950E94A607F3
:1019D00008950E94C50B08950E94110B08950E945E
:1019E000330808950E94F60708950E94720C089526
:1019F0000E94500708950E94110A08950E947508D8
:101A000008950E94E70608950E946D0408950E94BB
:101A1000800608950F931F9386E293E040E855E215
:101A200060E070E00E94CF1202EE11E0C80165E0B4
:101A300070E00E94750EC801039666E070E00E9497
:101A4000750E80E062E873E043E050E00E943A0FD8
:101A500081E062EB73E043E050E00E943A0F84E6DD
:101A600092E064E670E00E946D151F910F91089559
:101A7000FC0180916B028C3090F480838F5F8093A7
:101A80006B02815090E0FC01EE0FFF1FE80FF91F81
:101A9000E459FD4F88EB9BE09283818308958FEF9B
:101AA00080830895FC0120812C30B8F5818199272D
:101AB00087FD909548E850E0481B590B440F551F8F
:101AC000440F551F6417750784F08281992787FD9D
:101AD000909548E552E0481B590B440F551F440FA1
:101AE000551F641775070CF4AB0142505040CA01F2
:101AF000AA2797FDA095BA2F880F991FAA1FBB1F71
:101B00004FB7F89430E0F901EE0FFF1FE20FF31F1B
:101B1000E459FD4F928381834FBF0895AF92BF92E6
:101B2000CF92DF92EF92FF920F931F93CF93DF93A9
:101B3000EC019B0182E0603278070CF048C077FF2F
:101B400003C020E030E005C0653B710514F024EBD4
:101B500030E000D000D0B901882777FD8095982F1C
:101B60002981332727FD3095E8E8AE2EB12CA21A43
:101B7000B30AAA0CBB1CAA0CBB1CCC24B7FCC09497
:101B8000DC2CEA81FF27E7FDF09528E532E02E1BEB
:101B90003F0B220F331F220F331F442737FD409581
:101BA000542FEDB7FEB7218332834383548320E063
:101BB00030E040E050E004EBE02EF12C012D112D3F
:101BC0000E940A159B010F900F900F900F90CE016D
:101BD000B9010E94520DDF91CF911F910F91FF909B
:101BE000EF90DF90CF90BF90AF900895CF92DF92AB
:101BF000EF92FF921F93CF93DF93EC01162F7A01A0
:101C0000690188818C3008F064C0862F61E00E94F1
:101C1000BF10888190E0FC01EE0FFF1FE80FF91F55
:101C2000E459FD4F1F738081807C812B808380E28B
:101C300092E08E199F0964E070E00E94A318698306
:101C400080E699E08C199D0964E070E00E94A31879
:101C50006A83A8818A2F6CE00E949718682F70E031
:101C6000AB01440F551F460F571F440F551F440F1C
:101C7000551F20E030E0C901840F951FFC01EE0FD5
:101C8000FF1FE80FF91FE459FD4F808186FD15C045
:101C90002F5F3F4F2C30310571F724C01092800028
:101CA00082E0809381001092850010928400B19AA6
:101CB00080916F00826080936F008A2F90E0FC011A
:101CC000EE0FFF1FE80FF91FE459FD4F808180647C
:101CD00080838881DF91CF911F91FF90EF90DF90FB
:101CE000CF900895672BD1F2E8CF40E252E020E692
:101CF00039E00E94F60D08951F920F920FB60F92D1
:101D000011242F933F934F935F936F937F938F9300
:101D10009F93AF93BF93EF93FF938091900287FFC0
:101D200005C010928500109284002BC02091900273
:101D3000332727FD309580916B0290E028173907F3
:101D400004F580919002992787FD9095FC01EE0F94
:101D5000FF1FE80FF91FE459FD4F808186FF11C076
:101D600080919002992787FD9095FC01EE0FFF1F4F
:101D7000E80FF91FE459FD4F80818F7360E00E94E6
:101D8000FE10809190028F5F8093900220919002CC
:101D9000332727FD309580916B0290E02817390793
:101DA0000CF04EC0809190028C300CF049C0209114
:101DB00084003091850080919002992787FD90954D
:101DC000FC01EE0FFF1FE80FF91FE459FD4F818161
:101DD0009281280F391F30938900209388008091C9
:101DE0009002992787FD9095FC01EE0FFF1FE80FE9
:101DF000F91FE459FD4F808186FF2BC0809190022E
:101E0000992787FD9095FC01EE0FFF1FE80FF91F42
:101E1000E459FD4F80818F7361E00E94FE1019C06C
:101E200080E49CE905C0809184009091850004962F
:101E300090938900809388008FEF8093900209C06F
:101E40008091840090918500049680549C4940F3D1
:101E5000EACFFF91EF91BF91AF919F918F917F91C9
:101E60006F915F914F913F912F910F900FBE0F9007
:101E70001F901895823000F5E82FF0E0EE0FFF1F5D
:101E8000EF56FD4F71836083882319F08130A1F4F0
:101E900008C0809169008C7F842B80936900E89A48
:101EA000089580916900440F551F440F551F837F8B
:101EB000842B80936900E99A08951F920F920FB6C0
:101EC0000F9211242F933F934F935F936F937F93C0
:101ED0008F939F93AF93BF93EF93FF938091910262
:101EE00090919202892B29F0E0919102F091920257
:101EF0000995FF91EF91BF91AF919F918F917F9144
:101F00006F915F914F913F912F910F900FBE0F9066
:101F10001F9018951F920F920FB60F9211242F93B6
:101F20003F934F935F936F937F938F939F93AF9361
:101F3000BF93EF93FF938091930290919402892B2A
:101F400029F0E0919302F09194020995FF91EF91AD
:101F5000BF91AF919F918F917F916F915F914F91C1
:101F60003F912F910F900FBE0F901F9018951F92C9
:101F70000F920FB60F9211242F933F938F939F933D
:101F8000AF93BF938091990290919A02A0919B0286
:101F9000B0919C0230919D020196A11DB11D232F8D
:101FA0002D5F2D3720F02D570196A11DB11D2093D7
:101FB0009D028093990290939A02A0939B02B09302
:101FC0009C028091950290919602A0919702B09107
:101FD00098020196A11DB11D8093950290939602DF
:101FE000A0939702B0939802BF91AF919F918F9168
:101FF0003F912F910F900FBE0F901F9018959B014E
:10200000AC017FB7F8948091950290919602A091CF
:102010009702B091980266B5A89B05C06F3F19F072
:102020000196A11DB11D7FBFBA2FA92F982F882718
:10203000860F911DA11DB11D62E0880F991FAA1F77
:10204000BB1F6A95D1F7BC012DC0FFB7F8948091F2
:10205000950290919602A0919702B0919802E6B5F0
:10206000A89B05C0EF3F19F00196A11DB11DFFBF50
:10207000BA2FA92F982F88278E0F911DA11DB11D52
:10208000E2E0880F991FAA1FBB1FEA95D1F7861BB4
:10209000970B885E9340C8F221503040404050403A
:1020A00068517C4F211531054105510571F60895A0
:1020B000019739F0880F991F880F991F0297019790
:1020C000F1F70895789484B5826084BD84B5816009
:1020D00084BD85B5826085BD85B5816085BDEEE630
:1020E000F0E0808181608083E1E8F0E0108280810F
:1020F00082608083808181608083E0E8F0E080817D
:1021000081608083E1EBF0E0808184608083E0EB9C
:10211000F0E0808181608083EAE7F0E08081846084
:1021200080838081826080838081816080838081E0
:10213000806880831092C1000895982F8E3008F037
:102140009E5097708091AC018295880F880F807C9B
:10215000892B80937C0080917A00806480937A0040
:1021600080917A0086FDFCCF209178004091790023
:10217000942F80E030E0282B392BC9010895CF93AC
:10218000DF93482F50E0CA0186569F4FFC013491DF
:102190004A575F4FFA018491882369F190E0880FD4
:1021A000991FFC01E859FF4FA591B491FC01EE582D
:1021B000FF4FC591D491662351F42FB7F8948C91B9
:1021C000932F909589238C93888189230BC062304B
:1021D00061F42FB7F8948C91932F909589238C9369
:1021E0008881832B88832FBF06C09FB7F8948C917A
:1021F000832B8C939FBFDF91CF910895482F50E0A0
:10220000CA0182559F4FFC012491CA0186569F4FF7
:10221000FC0194914A575F4FFA013491332309F43A
:1022200040C0222351F1233071F0243028F42130B2
:10223000A1F0223011F514C02630B1F02730C1F0E2
:102240002430D9F404C0809180008F7703C080913E
:1022500080008F7D8093800010C084B58F7702C08E
:1022600084B58F7D84BD09C08091B0008F7703C095
:102270008091B0008F7D8093B000E32FF0E0EE0FEF
:10228000FF1FEE58FF4FA591B4912FB7F894662326
:1022900021F48C919095892302C08C91892B8C9389
:1022A0002FBF0895682F70E0CB0182559F4FFC012E
:1022B0002491CB0186569F4FFC0144916A577F4F72
:1022C000FB019491992319F420E030E03CC02223D3
:1022D00051F1233071F0243028F42130A1F0223064
:1022E00011F514C02630B1F02730C1F02430D9F4F4
:1022F00004C0809180008F7703C0809180008F7D23
:102300008093800010C084B58F7702C084B58F7D24
:1023100084BD09C08091B0008F7703C08091B00068
:102320008F7D8093B000892F90E0880F991F84588B
:102330009F4FFC01A591B4918C9120E030E0842363
:1023400011F021E030E0C90108958F929F92AF9281
:10235000BF92CF92DF92EF92FF920F931F93CF9392
:10236000DF93A82FB0E0CD0186569F4FFC018490EB
:10237000AA57BF4FFD018491662311F4992401C02F
:10238000982C6FEFA62E6FEFB62E6FEFC62E6FE074
:10239000D62EA222B322C422D522682F70E0660F67
:1023A000771F64587F4FEE24FF248701FB01A5911E
:1023B000B4910BC0EA14FB040C051D0509F44EC0D2
:1023C0000894E11CF11C011D111D8C9188218915B7
:1023D00089F30CC0EA14FB040C051D0509F43EC08A
:1023E0000894E11CF11C011D111D03C0FB01A59106
:1023F000B4918C918821891569F720E030E040E0A4
:1024000050E0FB01C591D4910FC0DA01C9018E0DD6
:102410009F1DA01FB11F8A159B05AC05BD05F1F0DE
:102420002F5F3F4F4F4F5F4F88818821891569F398
:10243000CA01B90125E130E040E050E00E9478187F
:102440009B01AC01205F3F4F4F4F5F4F84E056959B
:102450004795379527958A95D1F704C020E030E05D
:1024600040E050E0B901CA01DF91CF911F910F9177
:10247000FF90EF90DF90CF90BF90AF909F908F90A4
:10248000089508951F920F920FB60F9211242F9363
:102490003F934F938F939F93EF93FF938091C0004F
:1024A00082FD1DC04091C6002091DE023091DF0206
:1024B0002F5F3F4F2F7330708091E0029091E102C7
:1024C0002817390771F0E091DE02F091DF02E25641
:1024D000FD4F40833093DF022093DE0202C08091E3
:1024E000C600FF91EF919F918F914F913F912F9156
:1024F0000F900FBE0F901F901895E0913203F0914E
:102500003303E05CFF4F8191919120813181805CA8
:102510009F4F821B930B60E470E00E94A318892BED
:1025200011F00E94411208951F920F920FB60F9260
:1025300011242F933F938F939F93EF93FF932091B9
:1025400022033091230380912403909125032817BF
:10255000390731F48091C1008F7D8093C10014C090
:10256000E0912403F0912503EE51FD4F20818091ED
:1025700024039091250301968F7390709093250307
:10258000809324032093C600FF91EF919F918F9138
:102590003F912F910F900FBE0F901F901895AF9203
:1025A000BF92DF92EF92FF920F931F93CF93DF932F
:1025B000EC017A018B01DD24403081EE580780E088
:1025C000680780E0780711F0DD24D39491E0A92E0C
:1025D000B12CEC89FD89DD2069F0C50108A002C09D
:1025E000880F991F0A94E2F7808360E079E08DE319
:1025F00090E005C0108260E874E88EE190E0A801E8
:1026000097010E94B61821503040404050405695E6
:1026100047953795279580E12030380720F0DD2059
:1026200011F0DD24D6CFE889F9893083EA89FB8966
:10263000208319A2EE89FF89408121E030E0C901A1
:102640000C8C02C0880F991F0A94E2F7482B408334
:10265000EE89FF894081C9010D8C02C0880F991F46
:102660000A94E2F7482B4083EE89FF894081C90133
:102670000E8C02C0880F991F0A94E2F7482B408302
:10268000EE89FF8980810F8C02C0220F331F0A94CC
:10269000E2F7209528232083DF91CF911F910F919E
:1026A000FF90EF90DF90BF90AF900895DC011C96F3
:1026B000ED91FC911D97E05CFF4F819191912081FC
:1026C0003181805C9F4F821B930B60E470E00E941D
:1026D000A3180895DC011C96ED91FC911D97E05C18
:1026E000FF4F20813181E054F040DF01AE5BBF4FEE
:1026F0008D919C9111972817390719F42FEF3FEF0F
:1027000007C08D919C91E80FF91F8081282F30E040
:10271000C9010895DC011C96ED91FC911D97E05CC8
:10272000FF4F20813181E054F040DF01AE5BBF4FAD
:102730008D919C9111972817390719F42FEF3FEFCE
:1027400010C08D919C911197E80FF91F20818D91F8
:102750009C91119701968F73907011969C938E9314
:1027600030E0C9010895DC0191968C9191978823FE
:1027700039F05496ED91FC915597808186FFF9CF01
:1027800091961C920895CF93DF93EC01EE85FF851F
:10279000E05CFF4F20813181E054F0402F5F3F4FDC
:1027A0002F733070DF01AE5BBF4F8D919C911197FD
:1027B00028173907D1F3E05CFF4F80819181E05405
:1027C000F040E80FF91F6083EE85FF85E05CFF4F66
:1027D00031832083EE89FF89208181E090E00F8C96
:1027E00002C0880F991F0A94E2F7282B208381E00A
:1027F00089A3EC89FD8980818064808381E090E0F9
:10280000DF91CF910895109229031092280388EE4A
:1028100093E0A0E0B0E080932A0390932B03A09371
:102820002C03B0932D0387EB91E0909327038093C3
:1028300026038EE992E0909333038093320382EE75
:1028400092E0909335038093340385EC90E090936D
:1028500037038093360384EC90E0909339038093A0
:10286000380380EC90E090933B0380933A0381EC33
:1028700090E090933D0380933C0382EC90E0909332
:102880003F0380933E0386EC90E090934103809356
:10289000400384E08093420383E08093430387E016
:1028A0008093440385E08093450381E08093460351
:1028B00008950895CF93DF930E9462100E945914E7
:1028C0000E940A0DCDE7D2E10E94AE0C2097E1F301
:1028D0000E947D12F9CFCF92DF92EF92FF920F9379
:1028E0001F93CF93DF937C016B018A01C0E0D0E09E
:1028F0000FC0D6016D916D01D701ED91FC91019052
:10290000F081E02DC7010995C80FD91F0150104073
:102910000115110571F7CE01DF91CF911F910F9134
:10292000FF90EF90DF90CF900895CF93DF93FB015E
:10293000EC01A881B9816081718144815581129631
:10294000ED91FC9113970995DF91CF910895EF9246
:10295000FF920F931F938C01DC01ED91FC9101908C
:10296000F081E02D6DE009957C01D801ED91FC919D
:102970000190F081E02DC8016AE009959C012E0DBF
:102980003F1DC9011F910F91FF90EF900895EF92A5
:10299000FF920F931F937C010E9495148C01C70135
:1029A0000E94A7149C01200F311FC9011F910F9194
:1029B000FF90EF900895CF93DF93EC0161157105BF
:1029C00019F420E030E00FC0DB010D900020E9F7A2
:1029D0001197A61BB70BE881F9810280F381E02DE6
:1029E000AD0109959C01C901DF91CF910895EF9246
:1029F000FF920F931F937C010E94DB148C01C7018F
:102A00000E94A714080F191FC8011F910F91FF9072
:102A1000EF9008952F923F924F925F926F927F9224
:102A20008F929F92AF92BF92CF92DF92EF92FF92DE
:102A30000F931F93DF93CF93CDB7DEB73B014C01CC
:102A400019012A016D897E898F89988D6A197B0900
:102A50008C099D09621A730A840A950AA4019301DC
:102A60000E947818E218F30804091509A8019701D3
:102A70000E94D8182A0D3B1D4C1D5D1DB901CA01CD
:102A8000CF91DF911F910F91FF90EF90DF90CF904A
:102A9000BF90AF909F908F907F906F905F904F907E
:102AA0003F902F9008950F931F93CF93DF93EC01E6
:102AB0008B016F5F7F4F888199810E9497170097E4
:102AC00011F480E005C0998388831B830A8381E029
:102AD000DF91CF911F910F910895CF93DF93EC0178
:102AE00088819981892B29F08A819B818617970794
:102AF00060F4CE010E945315882341F08C819D81A2
:102B0000892B19F4E881F981108281E0DF91CF915E
:102B10000895EF92FF920F931F93CF93DF93EC01F1
:102B20007B016C817D81E114F104C1F041155105F7
:102B300099F08A01060F171FB8010E946D158823AE
:102B400069F0888199812C813D81820F931FB701A3
:102B50000E9497001D830C8381E001C080E0DF911B
:102B6000CF911F910F91FF90EF900895EF92FF92F8
:102B70000F931F93DF93CF93CDB7DEB728970FB690
:102B8000F894DEBF0FBECDBF7C01CB018E010F5F7D
:102B90001F4FB8014AE050E00E949E00F8010190EA
:102BA0000020E9F73197E01BF10BC701B801AF0135
:102BB0000E94891528960FB6F894DEBF0FBECDBFD0
:102BC000CF91DF911F910F91FF90EF9008956115C4
:102BD000710511F480E00895DB010D900020E9F704
:102BE0001197A61BB70BAD010E9489150895CF93CD
:102BF000DF93EC0188819981009711F00E94FF1604
:102C0000198218821D821C821B821A82DF91CF9149
:102C10000895EF92FF920F931F93CF93DF93EC01F0
:102C20007B018A01BA010E946D15882321F4CE012F
:102C30000E94F71507C01D830C8388819981B70115
:102C40000E949700CE01DF91CF911F910F91FF90CD
:102C5000EF900895CF93DF93EC01198218821B82C5
:102C60001A821D821C826115710551F0DB010D90E5
:102C70000020E9F71197A61BB70BAD010E940916BA
:102C8000DF91CF9108950F931F93182F092F61158E
:102C9000710559F0DB010D900020E9F71197A61B93
:102CA000B70BAD010E94091602C00E94F715812FD3
:102CB000902F1F910F910895FC01808191810E94B6
:102CC000FF1608950F931F93CF93DF93BC018230BB
:102CD000910510F462E070E0E0914A03F0914B033B
:102CE000A0E0B0E040E050E024C0808191818617F0
:102CF0009707D0F08617970771F482819381109718
:102D000029F013969C938E9312972CC090934B03AB
:102D100080934A0327C04115510519F08417950780
:102D200018F4EF018D01AC01DF01828193819C01D8
:102D3000F9013097D1F641155105F9F0CA01861B0A
:102D4000970B8430910580F48A819B8101151105D0
:102D500021F0F8019383828304C090934B03809306
:102D60004A03FE01329645C0FE01E80FF91F619348
:102D700071930297998388833CC080914803909116
:102D80004903892B41F48091AF019091B001909358
:102D90004903809348034091B1015091B20141151C
:102DA000510541F44DB75EB78091AD019091AE01F0
:102DB000481B590B209148033091490324173507CC
:102DC000B0F4CA01821B930B8617970780F0AB0102
:102DD0004E5F5F4F8417950750F0420F531F50937B
:102DE000490340934803F9016193719302C0E0E005
:102DF000F0E0CF01DF91CF911F910F910895CF9314
:102E0000DF939C01009709F48FC0EC0122971B828D
:102E10001A8260914A0370914B036115710581F428
:102E200088819981820F931F209148033091490333
:102E30002817390739F5D0934903C093480374C064
:102E4000DB0140E050E0AC17BD0708F1BB83AA836B
:102E5000FE0121913191E20FF31FAE17BF0779F404
:102E60008D919C911197280F391F2E5F3F4F398309
:102E7000288312968D919C9113979B838A83411589
:102E8000510571F4D0934B03C0934A034DC0129681
:102E90008D919C911397AD01009711F0DC01D3CF78
:102EA000DA011396DC93CE931297FA0121913191B6
:102EB000E20FF31FCE17DF0769F488819981280F8D
:102EC000391F2E5F3F4FFA01318320838A819B8116
:102ED00093838283E0E0F0E0DB0112968D919C9178
:102EE0001397009719F0BC01FD01F6CFAB014E5FBF
:102EF0005F4FDB018D919C91840F951F20914803BA
:102F0000309149032817390779F4309729F4109242
:102F10004B0310924A0302C0138212824250504067
:102F20005093490340934803DF91CF9108956F92E6
:102F30007F928F929F92AF92BF92CF92DF92EF9249
:102F4000FF920F931F93CF93DF938C01009729F487
:102F5000CB010E9462168C01BBC08EEFE82E8FEF72
:102F6000F82EE00EF11E4801860E971E8E149F0467
:102F700008F4ACC0D7014D915C91119746175707E3
:102F8000B8F04530510508F4A3C0CA01049786176C
:102F9000970708F49DC042505040461B570BF40160
:102FA000419351936D937C93CF010E94FF1690C083
:102FB0005B01A41AB50A3801640E751EA0914A037C
:102FC000B0914B03CC24DD24E0E0F0E047C0A6152F
:102FD000B705A9F5CD91DC911197CE0102968A151E
:102FE0009B0568F1CE018A199B09029612962C91D5
:102FF000129713963C91059758F0F401228333837E
:10300000CA19DB09D183C083D7016D937C9309C0B2
:103010004E5F5F4F4C0F5D1FF70151834083C90125
:10302000FC01C114D10431F0D6011396FC93EE9348
:1030300012974EC0F0934B03E0934A0349C08D9121
:103040009C911197E817F90708F4FC016D0112969D
:103050008C91129713969C919C01D901109709F0BD
:10306000B6CF809148039091490386159705E9F4FE
:10307000E617F707D0F42091B1013091B201211584
:10308000310541F42DB73EB78091AD019091AE016D
:10309000281B390B82169306C8F49092490380923C
:1030A0004803F7017183608313C0CB010E9462164D
:1030B000EC01009759F0D7014D915C91B8010E9445
:1030C0008E00C8010E94FF168E0102C000E010E0D1
:1030D000C801DF91CF911F910F91FF90EF90DF908A
:1030E000CF90BF90AF909F908F907F906F900895FA
:1030F000629FD001739FF001829FE00DF11D649FDC
:10310000E00DF11D929FF00D839FF00D749FF00D67
:10311000659FF00D9927729FB00DE11DF91F639F08
:10312000B00DE11DF91FBD01CF0111240895991BB8
:1031300079E004C0991F961708F0961B881F7A95AE
:10314000C9F78095089597FB092E07260AD077FDC9
:1031500004D049D006D000201AF4709561957F4FB5
:103160000895F6F7909581959F4F0895A1E21A2E44
:10317000AA1BBB1BFD010DC0AA1FBB1FEE1FFF1F1B
:10318000A217B307E407F50720F0A21BB30BE40B6B
:10319000F50B661F771F881F991F1A9469F76095B2
:1031A0007095809590959B01AC01BD01CF0108956C
:1031B00097FB092E05260ED057FD04D0D7DF0AD085
:1031C000001C38F450954095309521953F4F4F4F56
:1031D0005F4F0895F6F790958095709561957F4FB4
:1031E0008F4F9F4F0895AA1BBB1B51E107C0AA1F19
:1031F000BB1FA617B70710F0A61BB70B881F991F98
:103200005A95A9F780959095BC01CD010895EE0FD0
:10321000FF1F0590F491E02D09942F923F924F9259
:103220005F926F927F928F929F92AF92BF92CF9256
:10323000DF92EF92FF920F931F93CF93DF93CDB75F
:10324000DEB7CA1BDB0B0FB6F894DEBF0FBECDBFD7
:1032500009942A88398848885F846E847D848C84A8
:103260009B84AA84B984C884DF80EE80FD800C81B1
:103270001B81AA81B981CE0FD11D0FB6F894DEBF94
:103280000FBECDBFED01089510E0C6ECD0E004C044
:10329000FE010E9409192296C83CD107C9F7F8948B
:0232A000FFCF5E
:1032A2000063203000632025690064002000610073
:1032B2006120256320256920256900712025692068
:1032C2002569005620256920256920256900762078
:1032D2002569202569007A2025690070202564204F
:1032E200256C640045202569202569202569202553
:1032F2006920256920256900442025692025692047
:103302002569202569202569006520256920256910
:103312002025690064202569202569202569006D22
:10332200202569006E203420332030008401030000
:103332000200DC0564000100000001000000010140
:103342000101000101000000000000000180004CAA
:1033520003000000000000C3136B1456138A136AA3
:0433620013B313008E
:00000001FF
